{
  "abi": [
    {
      "type": "constructor",
      "inputs": [
        {
          "name": "_tellorAddress",
          "type": "address",
          "internalType": "address"
        },
        {
          "name": "_queryId",
          "type": "bytes32",
          "internalType": "bytes32"
        }
      ],
      "stateMutability": "nonpayable"
    },
    {
      "type": "function",
      "name": "alerts",
      "inputs": [
        {
          "name": "",
          "type": "uint256",
          "internalType": "uint256"
        }
      ],
      "outputs": [
        {
          "name": "id",
          "type": "uint256",
          "internalType": "uint256"
        },
        {
          "name": "user",
          "type": "address",
          "internalType": "address"
        },
        {
          "name": "targetPrice",
          "type": "uint256",
          "internalType": "uint256"
        },
        {
          "name": "isAbove",
          "type": "bool",
          "internalType": "bool"
        },
        {
          "name": "triggered",
          "type": "bool",
          "internalType": "bool"
        },
        {
          "name": "createdAt",
          "type": "uint256",
          "internalType": "uint256"
        }
      ],
      "stateMutability": "view"
    },
    {
      "type": "function",
      "name": "checkAlert",
      "inputs": [
        {
          "name": "_alertId",
          "type": "uint256",
          "internalType": "uint256"
        }
      ],
      "outputs": [
        {
          "name": "",
          "type": "bool",
          "internalType": "bool"
        }
      ],
      "stateMutability": "nonpayable"
    },
    {
      "type": "function",
      "name": "createAlert",
      "inputs": [
        {
          "name": "_targetPrice",
          "type": "uint256",
          "internalType": "uint256"
        },
        {
          "name": "_isAbove",
          "type": "bool",
          "internalType": "bool"
        }
      ],
      "outputs": [
        {
          "name": "",
          "type": "uint256",
          "internalType": "uint256"
        }
      ],
      "stateMutability": "nonpayable"
    },
    {
      "type": "function",
      "name": "deleteAlert",
      "inputs": [
        {
          "name": "_alertId",
          "type": "uint256",
          "internalType": "uint256"
        }
      ],
      "outputs": [],
      "stateMutability": "nonpayable"
    },
    {
      "type": "function",
      "name": "getActiveAlerts",
      "inputs": [
        {
          "name": "_user",
          "type": "address",
          "internalType": "address"
        }
      ],
      "outputs": [
        {
          "name": "",
          "type": "uint256[]",
          "internalType": "uint256[]"
        }
      ],
      "stateMutability": "view"
    },
    {
      "type": "function",
      "name": "getAlert",
      "inputs": [
        {
          "name": "_alertId",
          "type": "uint256",
          "internalType": "uint256"
        }
      ],
      "outputs": [
        {
          "name": "alert",
          "type": "tuple",
          "internalType": "struct PriceAlert.Alert",
          "components": [
            {
              "name": "id",
              "type": "uint256",
              "internalType": "uint256"
            },
            {
              "name": "user",
              "type": "address",
              "internalType": "address"
            },
            {
              "name": "targetPrice",
              "type": "uint256",
              "internalType": "uint256"
            },
            {
              "name": "isAbove",
              "type": "bool",
              "internalType": "bool"
            },
            {
              "name": "triggered",
              "type": "bool",
              "internalType": "bool"
            },
            {
              "name": "createdAt",
              "type": "uint256",
              "internalType": "uint256"
            }
          ]
        }
      ],
      "stateMutability": "view"
    },
    {
      "type": "function",
      "name": "getCurrentPrice",
      "inputs": [],
      "outputs": [
        {
          "name": "price",
          "type": "uint256",
          "internalType": "uint256"
        },
        {
          "name": "timestamp",
          "type": "uint256",
          "internalType": "uint256"
        }
      ],
      "stateMutability": "view"
    },
    {
      "type": "function",
      "name": "getDataFeedInfo",
      "inputs": [],
      "outputs": [
        {
          "name": "totalDataPoints",
          "type": "uint256",
          "internalType": "uint256"
        },
        {
          "name": "latestPrice",
          "type": "uint256",
          "internalType": "uint256"
        },
        {
          "name": "latestTimestamp",
          "type": "uint256",
          "internalType": "uint256"
        }
      ],
      "stateMutability": "view"
    },
    {
      "type": "function",
      "name": "getPriceAt",
      "inputs": [
        {
          "name": "_timestamp",
          "type": "uint256",
          "internalType": "uint256"
        }
      ],
      "outputs": [
        {
          "name": "price",
          "type": "uint256",
          "internalType": "uint256"
        },
        {
          "name": "timestamp",
          "type": "uint256",
          "internalType": "uint256"
        }
      ],
      "stateMutability": "view"
    },
    {
      "type": "function",
      "name": "getTotalAlerts",
      "inputs": [],
      "outputs": [
        {
          "name": "",
          "type": "uint256",
          "internalType": "uint256"
        }
      ],
      "stateMutability": "view"
    },
    {
      "type": "function",
      "name": "getUserAlerts",
      "inputs": [
        {
          "name": "_user",
          "type": "address",
          "internalType": "address"
        }
      ],
      "outputs": [
        {
          "name": "",
          "type": "uint256[]",
          "internalType": "uint256[]"
        }
      ],
      "stateMutability": "view"
    },
    {
      "type": "function",
      "name": "queryId",
      "inputs": [],
      "outputs": [
        {
          "name": "",
          "type": "bytes32",
          "internalType": "bytes32"
        }
      ],
      "stateMutability": "view"
    },
    {
      "type": "function",
      "name": "tellor",
      "inputs": [],
      "outputs": [
        {
          "name": "",
          "type": "address",
          "internalType": "contract ITellor"
        }
      ],
      "stateMutability": "view"
    },
    {
      "type": "function",
      "name": "userAlerts",
      "inputs": [
        {
          "name": "",
          "type": "address",
          "internalType": "address"
        },
        {
          "name": "",
          "type": "uint256",
          "internalType": "uint256"
        }
      ],
      "outputs": [
        {
          "name": "",
          "type": "uint256",
          "internalType": "uint256"
        }
      ],
      "stateMutability": "view"
    },
    {
      "type": "event",
      "name": "AlertCreated",
      "inputs": [
        {
          "name": "alertId",
          "type": "uint256",
          "indexed": true,
          "internalType": "uint256"
        },
        {
          "name": "user",
          "type": "address",
          "indexed": true,
          "internalType": "address"
        },
        {
          "name": "targetPrice",
          "type": "uint256",
          "indexed": false,
          "internalType": "uint256"
        },
        {
          "name": "isAbove",
          "type": "bool",
          "indexed": false,
          "internalType": "bool"
        }
      ],
      "anonymous": false
    },
    {
      "type": "event",
      "name": "AlertDeleted",
      "inputs": [
        {
          "name": "alertId",
          "type": "uint256",
          "indexed": true,
          "internalType": "uint256"
        },
        {
          "name": "user",
          "type": "address",
          "indexed": true,
          "internalType": "address"
        }
      ],
      "anonymous": false
    },
    {
      "type": "event",
      "name": "AlertTriggered",
      "inputs": [
        {
          "name": "alertId",
          "type": "uint256",
          "indexed": true,
          "internalType": "uint256"
        },
        {
          "name": "user",
          "type": "address",
          "indexed": true,
          "internalType": "address"
        },
        {
          "name": "currentPrice",
          "type": "uint256",
          "indexed": false,
          "internalType": "uint256"
        }
      ],
      "anonymous": false
    }
  ],
  "bytecode": {
    "object": "0x60c060405234801561000f575f5ffd5b5060405161220138038061220183398181016040528101906100319190610105565b8173ffffffffffffffffffffffffffffffffffffffff1660808173ffffffffffffffffffffffffffffffffffffffff16815250508060a081815250505050610143565b5f5ffd5b5f73ffffffffffffffffffffffffffffffffffffffff82169050919050565b5f6100a182610078565b9050919050565b6100b181610097565b81146100bb575f5ffd5b50565b5f815190506100cc816100a8565b92915050565b5f819050919050565b6100e4816100d2565b81146100ee575f5ffd5b50565b5f815190506100ff816100db565b92915050565b5f5f6040838503121561011b5761011a610074565b5b5f610128858286016100be565b9250506020610139858286016100f1565b9150509250929050565b60805160a0516120576101aa5f395f81816105e601528181610ba001528181610d5901528181610ec701528181610fd3015261109001525f81816105c201528181610b6401528181610d1d01528181610e8b01528181610f97015261105401526120575ff3fe608060405234801561000f575f5ffd5b50600436106100e8575f3560e01c8063850818861161008a578063c1db608411610064578063c1db608414610288578063cb9ba736146102a8578063eb91d37e146102d8578063f53c3a2b146102f7576100e8565b80638508188614610209578063ac37bf1014610239578063c1be76d71461026a576100e8565b80633f1be4d4116100c65780633f1be4d41461016f57806347cc94b51461018d5780636c399704146101a95780636db5e0c6146101d9576100e8565b806309ee17f2146100ec578063171d073a1461011c5780631959ad5b14610151575b5f5ffd5b61010660048036038101906101019190611485565b610327565b6040516101139190611570565b60405180910390f35b610136600480360381019061013191906115ba565b610542565b6040516101489695949392919061161d565b60405180910390f35b6101596105c0565b60405161016691906116d7565b60405180910390f35b6101776105e4565b6040516101849190611708565b60405180910390f35b6101a760048036038101906101a291906115ba565b610608565b005b6101c360048036038101906101be919061174b565b6107ef565b6040516101d09190611789565b60405180910390f35b6101f360048036038101906101ee91906117a2565b610a0c565b6040516102009190611789565b60405180910390f35b610223600480360381019061021e91906115ba565b610a37565b6040516102309190611877565b60405180910390f35b610253600480360381019061024e91906115ba565b610b5d565b604051610261929190611890565b60405180910390f35b610272610d0d565b60405161027f9190611789565b60405180910390f35b610290610d18565b60405161029f939291906118b7565b60405180910390f35b6102c260048036038101906102bd9190611485565b610df3565b6040516102cf9190611570565b60405180910390f35b6102e0610e86565b6040516102ee929190611890565b60405180910390f35b610311600480360381019061030c91906115ba565b611173565b60405161031e91906118ec565b60405180910390f35b60605f60015f8473ffffffffffffffffffffffffffffffffffffffff1673ffffffffffffffffffffffffffffffffffffffff1681526020019081526020015f208054806020026020016040519081016040528092919081815260200182805480156103af57602002820191905f5260205f20905b81548152602001906001019080831161039b575b505050505090505f5f90505f5f90505b8251811015610432575f8382815181106103dc576103db611905565b5b6020026020010151815481106103f5576103f4611905565b5b905f5260205f20906005020160030160019054906101000a900460ff166104255781806104219061195f565b9250505b80806001019150506103bf565b505f8167ffffffffffffffff81111561044e5761044d6119a6565b5b60405190808252806020026020018201604052801561047c5781602001602082028036833780820191505090505b5090505f5f90505f5f90505b8451811015610535575f8582815181106104a5576104a4611905565b5b6020026020010151815481106104be576104bd611905565b5b905f5260205f20906005020160030160019054906101000a900460ff16610528578481815181106104f2576104f1611905565b5b602002602001015183838151811061050d5761050c611905565b5b60200260200101818152505081806105249061195f565b9250505b8080600101915050610488565b5081945050505050919050565b5f8181548110610550575f80fd5b905f5260205f2090600502015f91509050805f015490806001015f9054906101000a900473ffffffffffffffffffffffffffffffffffffffff1690806002015490806003015f9054906101000a900460ff16908060030160019054906101000a900460ff16908060040154905086565b7f000000000000000000000000000000000000000000000000000000000000000081565b7f000000000000000000000000000000000000000000000000000000000000000081565b5f80549050811061064e576040517f08c379a000000000000000000000000000000000000000000000000000000000815260040161064590611a2d565b60405180910390fd5b3373ffffffffffffffffffffffffffffffffffffffff165f828154811061067857610677611905565b5b905f5260205f2090600502016001015f9054906101000a900473ffffffffffffffffffffffffffffffffffffffff1673ffffffffffffffffffffffffffffffffffffffff16146106fd576040517f08c379a00000000000000000000000000000000000000000000000000000000081526004016106f490611a95565b60405180910390fd5b5f81815481106107105761070f611905565b5b905f5260205f20906005020160030160019054906101000a900460ff161561076d576040517f08c379a000000000000000000000000000000000000000000000000000000000815260040161076490611afd565b60405180910390fd5b60015f828154811061078257610781611905565b5b905f5260205f20906005020160030160016101000a81548160ff0219169083151502179055503373ffffffffffffffffffffffffffffffffffffffff16817fe89821c66e69d4989add73f8564ba3bcbc068b9b2a3b7c99e6733f104ab9043e60405160405180910390a350565b5f5f8311610832576040517f08c379a000000000000000000000000000000000000000000000000000000000815260040161082990611b65565b60405180910390fd5b5f5f8054905090505f6040518060c001604052808381526020013373ffffffffffffffffffffffffffffffffffffffff16815260200186815260200185151581526020015f151581526020014281525090505f81908060018154018082558091505060019003905f5260205f2090600502015f909190919091505f820151815f01556020820151816001015f6101000a81548173ffffffffffffffffffffffffffffffffffffffff021916908373ffffffffffffffffffffffffffffffffffffffff160217905550604082015181600201556060820151816003015f6101000a81548160ff02191690831515021790555060808201518160030160016101000a81548160ff02191690831515021790555060a08201518160040155505060015f3373ffffffffffffffffffffffffffffffffffffffff1673ffffffffffffffffffffffffffffffffffffffff1681526020019081526020015f2082908060018154018082558091505060019003905f5260205f20015f90919091909150553373ffffffffffffffffffffffffffffffffffffffff16827f5ba7364716dcc3cee0ece6d4f23726357f8cdb5a7d12f4978c44891ad5b15ee587876040516109f9929190611b83565b60405180910390a3819250505092915050565b6001602052815f5260405f208181548110610a25575f80fd5b905f5260205f20015f91509150505481565b610a3f6113d0565b5f805490508210610a85576040517f08c379a0000000000000000000000000000000000000000000000000000000008152600401610a7c90611a2d565b60405180910390fd5b5f8281548110610a9857610a97611905565b5b905f5260205f2090600502016040518060c00160405290815f8201548152602001600182015f9054906101000a900473ffffffffffffffffffffffffffffffffffffffff1673ffffffffffffffffffffffffffffffffffffffff1673ffffffffffffffffffffffffffffffffffffffff16815260200160028201548152602001600382015f9054906101000a900460ff161515151581526020016003820160019054906101000a900460ff161515151581526020016004820154815250509050919050565b5f5f5f5f5f7f000000000000000000000000000000000000000000000000000000000000000073ffffffffffffffffffffffffffffffffffffffff1663a792765f7f0000000000000000000000000000000000000000000000000000000000000000886040518363ffffffff1660e01b8152600401610bdd929190611baa565b5f60405180830381865afa158015610bf7573d5f5f3e3d5ffd5b505050506040513d5f823e3d601f19601f82011682018060405250810190610c1f9190611d08565b92509250925082610c65576040517f08c379a0000000000000000000000000000000000000000000000000000000008152600401610c5c90611dbe565b60405180910390fd5b5f8111610ca7576040517f08c379a0000000000000000000000000000000000000000000000000000000008152600401610c9e90611e26565b60405180910390fd5b602082511015610cec576040517f08c379a0000000000000000000000000000000000000000000000000000000008152600401610ce390611e8e565b60405180910390fd5b81806020019051810190610d009190611eac565b9450809350505050915091565b5f5f80549050905090565b5f5f5f7f000000000000000000000000000000000000000000000000000000000000000073ffffffffffffffffffffffffffffffffffffffff166377b03e0d7f00000000000000000000000000000000000000000000000000000000000000006040518263ffffffff1660e01b8152600401610d949190611708565b602060405180830381865afa158015610daf573d5f5f3e3d5ffd5b505050506040513d601f19601f82011682018060405250810190610dd39190611eac565b92505f831115610dee57610de5610e86565b80925081935050505b909192565b606060015f8373ffffffffffffffffffffffffffffffffffffffff1673ffffffffffffffffffffffffffffffffffffffff1681526020019081526020015f20805480602002602001604051908101604052809291908181526020018280548015610e7a57602002820191905f5260205f20905b815481526020019060010190808311610e66575b50505050509050919050565b5f5f5f7f000000000000000000000000000000000000000000000000000000000000000073ffffffffffffffffffffffffffffffffffffffff166377b03e0d7f00000000000000000000000000000000000000000000000000000000000000006040518263ffffffff1660e01b8152600401610f029190611708565b602060405180830381865afa158015610f1d573d5f5f3e3d5ffd5b505050506040513d601f19601f82011682018060405250810190610f419190611eac565b90505f8111610f85576040517f08c379a0000000000000000000000000000000000000000000000000000000008152600401610f7c90611e26565b60405180910390fd5b5f600182610f939190611ed7565b90507f000000000000000000000000000000000000000000000000000000000000000073ffffffffffffffffffffffffffffffffffffffff1663ce5e11bf7f0000000000000000000000000000000000000000000000000000000000000000836040518363ffffffff1660e01b8152600401611010929190611baa565b602060405180830381865afa15801561102b573d5f5f3e3d5ffd5b505050506040513d601f19601f8201168201806040525081019061104f9190611eac565b92505f7f000000000000000000000000000000000000000000000000000000000000000073ffffffffffffffffffffffffffffffffffffffff1663c5958af97f0000000000000000000000000000000000000000000000000000000000000000866040518363ffffffff1660e01b81526004016110cd929190611baa565b5f60405180830381865afa1580156110e7573d5f5f3e3d5ffd5b505050506040513d5f823e3d601f19601f8201168201806040525081019061110f9190611f0a565b9050602081511015611156576040517f08c379a000000000000000000000000000000000000000000000000000000000815260040161114d90611e8e565b60405180910390fd5b8080602001905181019061116a9190611eac565b94505050509091565b5f5f8054905082106111ba576040517f08c379a00000000000000000000000000000000000000000000000000000000081526004016111b190611a2d565b60405180910390fd5b5f5f83815481106111ce576111cd611905565b5b905f5260205f20906005020190508060030160019054906101000a900460ff161561122e576040517f08c379a000000000000000000000000000000000000000000000000000000000815260040161122590611afd565b60405180910390fd5b5f5f611238610e86565b915091505f811161127e576040517f08c379a000000000000000000000000000000000000000000000000000000000815260040161127590611f9b565b60405180910390fd5b62015180814261128e9190611ed7565b106112ce576040517f08c379a00000000000000000000000000000000000000000000000000000000081526004016112c590612003565b60405180910390fd5b5f5f9050836003015f9054906101000a900460ff1680156112f3575083600201548310155b15611301576001905061132e565b836003015f9054906101000a900460ff16158015611323575083600201548311155b1561132d57600190505b5b80156113c45760018460030160016101000a81548160ff021916908315150217905550836001015f9054906101000a900473ffffffffffffffffffffffffffffffffffffffff1673ffffffffffffffffffffffffffffffffffffffff16867fc940493818ce80ec530978cb4e1b1d5f9e1f5c19775a2502b579c9686a5091c8856040516113bb9190611789565b60405180910390a35b80945050505050919050565b6040518060c001604052805f81526020015f73ffffffffffffffffffffffffffffffffffffffff1681526020015f81526020015f151581526020015f151581526020015f81525090565b5f604051905090565b5f5ffd5b5f5ffd5b5f73ffffffffffffffffffffffffffffffffffffffff82169050919050565b5f6114548261142b565b9050919050565b6114648161144a565b811461146e575f5ffd5b50565b5f8135905061147f8161145b565b92915050565b5f6020828403121561149a57611499611423565b5b5f6114a784828501611471565b91505092915050565b5f81519050919050565b5f82825260208201905092915050565b5f819050602082019050919050565b5f819050919050565b6114eb816114d9565b82525050565b5f6114fc83836114e2565b60208301905092915050565b5f602082019050919050565b5f61151e826114b0565b61152881856114ba565b9350611533836114ca565b805f5b8381101561156357815161154a88826114f1565b975061155583611508565b925050600181019050611536565b5085935050505092915050565b5f6020820190508181035f8301526115888184611514565b905092915050565b611599816114d9565b81146115a3575f5ffd5b50565b5f813590506115b481611590565b92915050565b5f602082840312156115cf576115ce611423565b5b5f6115dc848285016115a6565b91505092915050565b6115ee816114d9565b82525050565b6115fd8161144a565b82525050565b5f8115159050919050565b61161781611603565b82525050565b5f60c0820190506116305f8301896115e5565b61163d60208301886115f4565b61164a60408301876115e5565b611657606083018661160e565b611664608083018561160e565b61167160a08301846115e5565b979650505050505050565b5f819050919050565b5f61169f61169a6116958461142b565b61167c565b61142b565b9050919050565b5f6116b082611685565b9050919050565b5f6116c1826116a6565b9050919050565b6116d1816116b7565b82525050565b5f6020820190506116ea5f8301846116c8565b92915050565b5f819050919050565b611702816116f0565b82525050565b5f60208201905061171b5f8301846116f9565b92915050565b61172a81611603565b8114611734575f5ffd5b50565b5f8135905061174581611721565b92915050565b5f5f6040838503121561176157611760611423565b5b5f61176e858286016115a6565b925050602061177f85828601611737565b9150509250929050565b5f60208201905061179c5f8301846115e5565b92915050565b5f5f604083850312156117b8576117b7611423565b5b5f6117c585828601611471565b92505060206117d6858286016115a6565b9150509250929050565b6117e98161144a565b82525050565b6117f881611603565b82525050565b60c082015f8201516118125f8501826114e2565b50602082015161182560208501826117e0565b50604082015161183860408501826114e2565b50606082015161184b60608501826117ef565b50608082015161185e60808501826117ef565b5060a082015161187160a08501826114e2565b50505050565b5f60c08201905061188a5f8301846117fe565b92915050565b5f6040820190506118a35f8301856115e5565b6118b060208301846115e5565b9392505050565b5f6060820190506118ca5f8301866115e5565b6118d760208301856115e5565b6118e460408301846115e5565b949350505050565b5f6020820190506118ff5f83018461160e565b92915050565b7f4e487b71000000000000000000000000000000000000000000000000000000005f52603260045260245ffd5b7f4e487b71000000000000000000000000000000000000000000000000000000005f52601160045260245ffd5b5f611969826114d9565b91507fffffffffffffffffffffffffffffffffffffffffffffffffffffffffffffffff820361199b5761199a611932565b5b600182019050919050565b7f4e487b71000000000000000000000000000000000000000000000000000000005f52604160045260245ffd5b5f82825260208201905092915050565b7f416c65727420646f6573206e6f742065786973740000000000000000000000005f82015250565b5f611a176014836119d3565b9150611a22826119e3565b602082019050919050565b5f6020820190508181035f830152611a4481611a0b565b9050919050565b7f4e6f7420796f757220616c6572740000000000000000000000000000000000005f82015250565b5f611a7f600e836119d3565b9150611a8a82611a4b565b602082019050919050565b5f6020820190508181035f830152611aac81611a73565b9050919050565b7f416c65727420616c7265616479207472696767657265640000000000000000005f82015250565b5f611ae76017836119d3565b9150611af282611ab3565b602082019050919050565b5f6020820190508181035f830152611b1481611adb565b9050919050565b7f5072696365206d757374206265203e20300000000000000000000000000000005f82015250565b5f611b4f6011836119d3565b9150611b5a82611b1b565b602082019050919050565b5f6020820190508181035f830152611b7c81611b43565b9050919050565b5f604082019050611b965f8301856115e5565b611ba3602083018461160e565b9392505050565b5f604082019050611bbd5f8301856116f9565b611bca60208301846115e5565b9392505050565b5f81519050611bdf81611721565b92915050565b5f5ffd5b5f5ffd5b5f601f19601f8301169050919050565b611c0682611bed565b810181811067ffffffffffffffff82111715611c2557611c246119a6565b5b80604052505050565b5f611c3761141a565b9050611c438282611bfd565b919050565b5f67ffffffffffffffff821115611c6257611c616119a6565b5b611c6b82611bed565b9050602081019050919050565b8281835e5f83830152505050565b5f611c98611c9384611c48565b611c2e565b905082815260208101848484011115611cb457611cb3611be9565b5b611cbf848285611c78565b509392505050565b5f82601f830112611cdb57611cda611be5565b5b8151611ceb848260208601611c86565b91505092915050565b5f81519050611d0281611590565b92915050565b5f5f5f60608486031215611d1f57611d1e611423565b5b5f611d2c86828701611bd1565b935050602084015167ffffffffffffffff811115611d4d57611d4c611427565b5b611d5986828701611cc7565b9250506040611d6a86828701611cf4565b9150509250925092565b7f4e6f2064617461206265666f72652074696d657374616d7000000000000000005f82015250565b5f611da86018836119d3565b9150611db382611d74565b602082019050919050565b5f6020820190508181035f830152611dd581611d9c565b9050919050565b7f4e6f206461746120617661696c61626c650000000000000000000000000000005f82015250565b5f611e106011836119d3565b9150611e1b82611ddc565b602082019050919050565b5f6020820190508181035f830152611e3d81611e04565b9050919050565b7f496e76616c6964206461746100000000000000000000000000000000000000005f82015250565b5f611e78600c836119d3565b9150611e8382611e44565b602082019050919050565b5f6020820190508181035f830152611ea581611e6c565b9050919050565b5f60208284031215611ec157611ec0611423565b5b5f611ece84828501611cf4565b91505092915050565b5f611ee1826114d9565b9150611eec836114d9565b9250828203905081811115611f0457611f03611932565b5b92915050565b5f60208284031215611f1f57611f1e611423565b5b5f82015167ffffffffffffffff811115611f3c57611f3b611427565b5b611f4884828501611cc7565b91505092915050565b7f4e6f207072696365206461746120617661696c61626c650000000000000000005f82015250565b5f611f856017836119d3565b9150611f9082611f51565b602082019050919050565b5f6020820190508181035f830152611fb281611f79565b9050919050565b7f5072696365206461746120746f6f206f6c6400000000000000000000000000005f82015250565b5f611fed6012836119d3565b9150611ff882611fb9565b602082019050919050565b5f6020820190508181035f83015261201a81611fe1565b905091905056fea2646970667358221220ffdb2677d3754641dc41300025ebfe92165f0d9272a900b4bb0488894d00656c64736f6c634300081e0033",
    "linkReferences": {}
  },
  "methodIdentifiers": {
    "alerts(uint256)": "171d073a",
    "checkAlert(uint256)": "f53c3a2b",
    "createAlert(uint256,bool)": "6c399704",
    "deleteAlert(uint256)": "47cc94b5",
    "getActiveAlerts(address)": "09ee17f2",
    "getAlert(uint256)": "85081886",
    "getCurrentPrice()": "eb91d37e",
    "getDataFeedInfo()": "c1db6084",
    "getPriceAt(uint256)": "ac37bf10",
    "getTotalAlerts()": "c1be76d7",
    "getUserAlerts(address)": "cb9ba736",
    "queryId()": "3f1be4d4",
    "tellor()": "1959ad5b",
    "userAlerts(address,uint256)": "6db5e0c6"
  },
  "id": 20
}