{"abi":[{"type":"constructor","inputs":[{"name":"_tellorAddress","type":"address","internalType":"address"},{"name":"_queryId","type":"bytes32","internalType":"bytes32"}],"stateMutability":"nonpayable"},{"type":"function","name":"alerts","inputs":[{"name":"","type":"uint256","internalType":"uint256"}],"outputs":[{"name":"id","type":"uint256","internalType":"uint256"},{"name":"user","type":"address","internalType":"address"},{"name":"targetPrice","type":"uint256","internalType":"uint256"},{"name":"isAbove","type":"bool","internalType":"bool"},{"name":"triggered","type":"bool","internalType":"bool"},{"name":"deleted","type":"bool","internalType":"bool"},{"name":"createdAt","type":"uint256","internalType":"uint256"}],"stateMutability":"view"},{"type":"function","name":"checkAlert","inputs":[{"name":"_alertId","type":"uint256","internalType":"uint256"}],"outputs":[{"name":"","type":"bool","internalType":"bool"}],"stateMutability":"nonpayable"},{"type":"function","name":"createAlert","inputs":[{"name":"_targetPrice","type":"uint256","internalType":"uint256"},{"name":"_isAbove","type":"bool","internalType":"bool"}],"outputs":[{"name":"","type":"uint256","internalType":"uint256"}],"stateMutability":"nonpayable"},{"type":"function","name":"deleteAlert","inputs":[{"name":"_alertId","type":"uint256","internalType":"uint256"}],"outputs":[],"stateMutability":"nonpayable"},{"type":"function","name":"getActiveAlerts","inputs":[{"name":"_user","type":"address","internalType":"address"}],"outputs":[{"name":"","type":"uint256[]","internalType":"uint256[]"}],"stateMutability":"view"},{"type":"function","name":"getAlert","inputs":[{"name":"_alertId","type":"uint256","internalType":"uint256"}],"outputs":[{"name":"alert","type":"tuple","internalType":"struct PriceAlert.Alert","components":[{"name":"id","type":"uint256","internalType":"uint256"},{"name":"user","type":"address","internalType":"address"},{"name":"targetPrice","type":"uint256","internalType":"uint256"},{"name":"isAbove","type":"bool","internalType":"bool"},{"name":"triggered","type":"bool","internalType":"bool"},{"name":"deleted","type":"bool","internalType":"bool"},{"name":"createdAt","type":"uint256","internalType":"uint256"}]}],"stateMutability":"view"},{"type":"function","name":"getCurrentPrice","inputs":[],"outputs":[{"name":"price","type":"uint256","internalType":"uint256"},{"name":"timestamp","type":"uint256","internalType":"uint256"}],"stateMutability":"view"},{"type":"function","name":"getDataFeedInfo","inputs":[],"outputs":[{"name":"totalDataPoints","type":"uint256","internalType":"uint256"},{"name":"latestPrice","type":"uint256","internalType":"uint256"},{"name":"latestTimestamp","type":"uint256","internalType":"uint256"}],"stateMutability":"view"},{"type":"function","name":"getDeletedAlerts","inputs":[{"name":"_user","type":"address","internalType":"address"}],"outputs":[{"name":"","type":"uint256[]","internalType":"uint256[]"}],"stateMutability":"view"},{"type":"function","name":"getPriceAt","inputs":[{"name":"_timestamp","type":"uint256","internalType":"uint256"}],"outputs":[{"name":"price","type":"uint256","internalType":"uint256"},{"name":"timestamp","type":"uint256","internalType":"uint256"}],"stateMutability":"view"},{"type":"function","name":"getTotalAlerts","inputs":[],"outputs":[{"name":"","type":"uint256","internalType":"uint256"}],"stateMutability":"view"},{"type":"function","name":"getTriggeredAlerts","inputs":[{"name":"_user","type":"address","internalType":"address"}],"outputs":[{"name":"","type":"uint256[]","internalType":"uint256[]"}],"stateMutability":"view"},{"type":"function","name":"getUserAlerts","inputs":[{"name":"_user","type":"address","internalType":"address"}],"outputs":[{"name":"","type":"uint256[]","internalType":"uint256[]"}],"stateMutability":"view"},{"type":"function","name":"queryId","inputs":[],"outputs":[{"name":"","type":"bytes32","internalType":"bytes32"}],"stateMutability":"view"},{"type":"function","name":"tellor","inputs":[],"outputs":[{"name":"","type":"address","internalType":"contract ITellor"}],"stateMutability":"view"},{"type":"function","name":"userAlerts","inputs":[{"name":"","type":"address","internalType":"address"},{"name":"","type":"uint256","internalType":"uint256"}],"outputs":[{"name":"","type":"uint256","internalType":"uint256"}],"stateMutability":"view"},{"type":"event","name":"AlertCreated","inputs":[{"name":"alertId","type":"uint256","indexed":true,"internalType":"uint256"},{"name":"user","type":"address","indexed":true,"internalType":"address"},{"name":"targetPrice","type":"uint256","indexed":false,"internalType":"uint256"},{"name":"isAbove","type":"bool","indexed":false,"internalType":"bool"}],"anonymous":false},{"type":"event","name":"AlertDeleted","inputs":[{"name":"alertId","type":"uint256","indexed":true,"internalType":"uint256"},{"name":"user","type":"address","indexed":true,"internalType":"address"}],"anonymous":false},{"type":"event","name":"AlertTriggered","inputs":[{"name":"alertId","type":"uint256","indexed":true,"internalType":"uint256"},{"name":"user","type":"address","indexed":true,"internalType":"address"},{"name":"currentPrice","type":"uint256","indexed":false,"internalType":"uint256"}],"anonymous":false}],"bytecode":{"object":"0x60c060405234801561000f575f5ffd5b5060405161297b38038061297b83398181016040528101906100319190610105565b8173ffffffffffffffffffffffffffffffffffffffff1660808173ffffffffffffffffffffffffffffffffffffffff16815250508060a081815250505050610143565b5f5ffd5b5f73ffffffffffffffffffffffffffffffffffffffff82169050919050565b5f6100a182610078565b9050919050565b6100b181610097565b81146100bb575f5ffd5b50565b5f815190506100cc816100a8565b92915050565b5f819050919050565b6100e4816100d2565b81146100ee575f5ffd5b50565b5f815190506100ff816100db565b92915050565b5f5f6040838503121561011b5761011a610074565b5b5f610128858286016100be565b9250506020610139858286016100f1565b9150509250929050565b60805160a0516127d16101aa5f395f81816106d6015281816111cf01528181611388015281816114f60152818161160201526116bf01525f81816106b2015281816111930152818161134c015281816114ba015281816115c6015261168301526127d15ff3fe608060405234801561000f575f5ffd5b50600436106100fe575f3560e01c80638508188611610095578063c1db608411610064578063c1db6084146102ff578063cb9ba7361461031f578063eb91d37e1461034f578063f53c3a2b1461036e576100fe565b806385081886146102505780638c4562cd14610280578063ac37bf10146102b0578063c1be76d7146102e1576100fe565b806346db8965116100d157806346db8965146101a457806347cc94b5146101d45780636c399704146101f05780636db5e0c614610220576100fe565b806309ee17f214610102578063171d073a146101325780631959ad5b146101685780633f1be4d414610186575b5f5ffd5b61011c60048036038101906101179190611b0e565b61039e565b6040516101299190611bf9565b60405180910390f35b61014c60048036038101906101479190611c43565b61061f565b60405161015f9796959493929190611ca6565b60405180910390f35b6101706106b0565b60405161017d9190611d6e565b60405180910390f35b61018e6106d4565b60405161019b9190611d9f565b60405180910390f35b6101be60048036038101906101b99190611b0e565b6106f8565b6040516101cb9190611bf9565b60405180910390f35b6101ee60048036038101906101e99190611c43565b610905565b005b61020a60048036038101906102059190611de2565b610b5c565b6040516102179190611e20565b60405180910390f35b61023a60048036038101906102359190611e39565b610da1565b6040516102479190611e20565b60405180910390f35b61026a60048036038101906102659190611c43565b610dcc565b6040516102779190611f21565b60405180910390f35b61029a60048036038101906102959190611b0e565b610f0d565b6040516102a79190611bf9565b60405180910390f35b6102ca60048036038101906102c59190611c43565b61118c565b6040516102d8929190611f3a565b60405180910390f35b6102e961133c565b6040516102f69190611e20565b60405180910390f35b610307611347565b60405161031693929190611f61565b60405180910390f35b61033960048036038101906103349190611b0e565b611422565b6040516103469190611bf9565b60405180910390f35b6103576114b5565b604051610365929190611f3a565b60405180910390f35b61038860048036038101906103839190611c43565b6117a2565b6040516103959190611f96565b60405180910390f35b60605f60015f8473ffffffffffffffffffffffffffffffffffffffff1673ffffffffffffffffffffffffffffffffffffffff1681526020019081526020015f2080548060200260200160405190810160405280929190818152602001828054801561042657602002820191905f5260205f20905b815481526020019060010190808311610412575b505050505090505f5f90505f5f90505b82518110156104e9575f83828151811061045357610452611faf565b5b602002602001015190505f81815481106104705761046f611faf565b5b905f5260205f20906005020160030160019054906101000a900460ff161580156104c757505f81815481106104a8576104a7611faf565b5b905f5260205f20906005020160030160029054906101000a900460ff16155b156104db5782806104d790612009565b9350505b508080600101915050610436565b505f8167ffffffffffffffff81111561050557610504612050565b5b6040519080825280602002602001820160405280156105335781602001602082028036833780820191505090505b5090505f5f90505f5f90505b8451811015610612575f85828151811061055c5761055b611faf565b5b602002602001015190505f818154811061057957610578611faf565b5b905f5260205f20906005020160030160019054906101000a900460ff161580156105d057505f81815481106105b1576105b0611faf565b5b905f5260205f20906005020160030160029054906101000a900460ff16155b1561060457808484815181106105e9576105e8611faf565b5b602002602001018181525050828061060090612009565b9350505b50808060010191505061053f565b5081945050505050919050565b5f818154811061062d575f80fd5b905f5260205f2090600502015f91509050805f015490806001015f9054906101000a900473ffffffffffffffffffffffffffffffffffffffff1690806002015490806003015f9054906101000a900460ff16908060030160019054906101000a900460ff16908060030160029054906101000a900460ff16908060040154905087565b7f000000000000000000000000000000000000000000000000000000000000000081565b7f000000000000000000000000000000000000000000000000000000000000000081565b60605f60015f8473ffffffffffffffffffffffffffffffffffffffff1673ffffffffffffffffffffffffffffffffffffffff1681526020019081526020015f2080548060200260200160405190810160405280929190818152602001828054801561078057602002820191905f5260205f20905b81548152602001906001019080831161076c575b505050505090505f5f90505f5f90505b8251811015610809575f8382815181106107ad576107ac611faf565b5b602002602001015190505f81815481106107ca576107c9611faf565b5b905f5260205f20906005020160030160029054906101000a900460ff16156107fb5782806107f790612009565b9350505b508080600101915050610790565b505f8167ffffffffffffffff81111561082557610824612050565b5b6040519080825280602002602001820160405280156108535781602001602082028036833780820191505090505b5090505f5f90505f5f90505b84518110156108f8575f85828151811061087c5761087b611faf565b5b602002602001015190505f818154811061089957610898611faf565b5b905f5260205f20906005020160030160029054906101000a900460ff16156108ea57808484815181106108cf576108ce611faf565b5b60200260200101818152505082806108e690612009565b9350505b50808060010191505061085f565b5081945050505050919050565b5f80549050811061094b576040517f08c379a0000000000000000000000000000000000000000000000000000000008152600401610942906120d7565b60405180910390fd5b3373ffffffffffffffffffffffffffffffffffffffff165f828154811061097557610974611faf565b5b905f5260205f2090600502016001015f9054906101000a900473ffffffffffffffffffffffffffffffffffffffff1673ffffffffffffffffffffffffffffffffffffffff16146109fa576040517f08c379a00000000000000000000000000000000000000000000000000000000081526004016109f19061213f565b60405180910390fd5b5f8181548110610a0d57610a0c611faf565b5b905f5260205f20906005020160030160019054906101000a900460ff1615610a6a576040517f08c379a0000000000000000000000000000000000000000000000000000000008152600401610a61906121a7565b60405180910390fd5b5f8181548110610a7d57610a7c611faf565b5b905f5260205f20906005020160030160029054906101000a900460ff1615610ada576040517f08c379a0000000000000000000000000000000000000000000000000000000008152600401610ad19061220f565b60405180910390fd5b60015f8281548110610aef57610aee611faf565b5b905f5260205f20906005020160030160026101000a81548160ff0219169083151502179055503373ffffffffffffffffffffffffffffffffffffffff16817fe89821c66e69d4989add73f8564ba3bcbc068b9b2a3b7c99e6733f104ab9043e60405160405180910390a350565b5f5f8311610b9f576040517f08c379a0000000000000000000000000000000000000000000000000000000008152600401610b9690612277565b60405180910390fd5b5f5f8054905090505f6040518060e001604052808381526020013373ffffffffffffffffffffffffffffffffffffffff16815260200186815260200185151581526020015f151581526020015f151581526020014281525090505f81908060018154018082558091505060019003905f5260205f2090600502015f909190919091505f820151815f01556020820151816001015f6101000a81548173ffffffffffffffffffffffffffffffffffffffff021916908373ffffffffffffffffffffffffffffffffffffffff160217905550604082015181600201556060820151816003015f6101000a81548160ff02191690831515021790555060808201518160030160016101000a81548160ff02191690831515021790555060a08201518160030160026101000a81548160ff02191690831515021790555060c08201518160040155505060015f3373ffffffffffffffffffffffffffffffffffffffff1673ffffffffffffffffffffffffffffffffffffffff1681526020019081526020015f2082908060018154018082558091505060019003905f5260205f20015f90919091909150553373ffffffffffffffffffffffffffffffffffffffff16827f5ba7364716dcc3cee0ece6d4f23726357f8cdb5a7d12f4978c44891ad5b15ee58787604051610d8e929190612295565b60405180910390a3819250505092915050565b6001602052815f5260405f208181548110610dba575f80fd5b905f5260205f20015f91509150505481565b610dd4611a51565b5f805490508210610e1a576040517f08c379a0000000000000000000000000000000000000000000000000000000008152600401610e11906120d7565b60405180910390fd5b5f8281548110610e2d57610e2c611faf565b5b905f5260205f2090600502016040518060e00160405290815f8201548152602001600182015f9054906101000a900473ffffffffffffffffffffffffffffffffffffffff1673ffffffffffffffffffffffffffffffffffffffff1673ffffffffffffffffffffffffffffffffffffffff16815260200160028201548152602001600382015f9054906101000a900460ff161515151581526020016003820160019054906101000a900460ff161515151581526020016003820160029054906101000a900460ff161515151581526020016004820154815250509050919050565b60605f60015f8473ffffffffffffffffffffffffffffffffffffffff1673ffffffffffffffffffffffffffffffffffffffff1681526020019081526020015f20805480602002602001604051908101604052809291908181526020018280548015610f9557602002820191905f5260205f20905b815481526020019060010190808311610f81575b505050505090505f5f90505f5f90505b8251811015611057575f838281518110610fc257610fc1611faf565b5b602002602001015190505f8181548110610fdf57610fde611faf565b5b905f5260205f20906005020160030160019054906101000a900460ff16801561103557505f818154811061101657611015611faf565b5b905f5260205f20906005020160030160029054906101000a900460ff16155b1561104957828061104590612009565b9350505b508080600101915050610fa5565b505f8167ffffffffffffffff81111561107357611072612050565b5b6040519080825280602002602001820160405280156110a15781602001602082028036833780820191505090505b5090505f5f90505f5f90505b845181101561117f575f8582815181106110ca576110c9611faf565b5b602002602001015190505f81815481106110e7576110e6611faf565b5b905f5260205f20906005020160030160019054906101000a900460ff16801561113d57505f818154811061111e5761111d611faf565b5b905f5260205f20906005020160030160029054906101000a900460ff16155b15611171578084848151811061115657611155611faf565b5b602002602001018181525050828061116d90612009565b9350505b5080806001019150506110ad565b5081945050505050919050565b5f5f5f5f5f7f000000000000000000000000000000000000000000000000000000000000000073ffffffffffffffffffffffffffffffffffffffff1663a792765f7f0000000000000000000000000000000000000000000000000000000000000000886040518363ffffffff1660e01b815260040161120c9291906122bc565b5f60405180830381865afa158015611226573d5f5f3e3d5ffd5b505050506040513d5f823e3d601f19601f8201168201806040525081019061124e919061241a565b92509250925082611294576040517f08c379a000000000000000000000000000000000000000000000000000000000815260040161128b906124d0565b60405180910390fd5b5f81116112d6576040517f08c379a00000000000000000000000000000000000000000000000000000000081526004016112cd90612538565b60405180910390fd5b60208251101561131b576040517f08c379a0000000000000000000000000000000000000000000000000000000008152600401611312906125a0565b60405180910390fd5b8180602001905181019061132f91906125be565b9450809350505050915091565b5f5f80549050905090565b5f5f5f7f000000000000000000000000000000000000000000000000000000000000000073ffffffffffffffffffffffffffffffffffffffff166377b03e0d7f00000000000000000000000000000000000000000000000000000000000000006040518263ffffffff1660e01b81526004016113c39190611d9f565b602060405180830381865afa1580156113de573d5f5f3e3d5ffd5b505050506040513d601f19601f8201168201806040525081019061140291906125be565b92505f83111561141d576114146114b5565b80925081935050505b909192565b606060015f8373ffffffffffffffffffffffffffffffffffffffff1673ffffffffffffffffffffffffffffffffffffffff1681526020019081526020015f208054806020026020016040519081016040528092919081815260200182805480156114a957602002820191905f5260205f20905b815481526020019060010190808311611495575b50505050509050919050565b5f5f5f7f000000000000000000000000000000000000000000000000000000000000000073ffffffffffffffffffffffffffffffffffffffff166377b03e0d7f00000000000000000000000000000000000000000000000000000000000000006040518263ffffffff1660e01b81526004016115319190611d9f565b602060405180830381865afa15801561154c573d5f5f3e3d5ffd5b505050506040513d601f19601f8201168201806040525081019061157091906125be565b90505f81116115b4576040517f08c379a00000000000000000000000000000000000000000000000000000000081526004016115ab90612538565b60405180910390fd5b5f6001826115c291906125e9565b90507f000000000000000000000000000000000000000000000000000000000000000073ffffffffffffffffffffffffffffffffffffffff1663ce5e11bf7f0000000000000000000000000000000000000000000000000000000000000000836040518363ffffffff1660e01b815260040161163f9291906122bc565b602060405180830381865afa15801561165a573d5f5f3e3d5ffd5b505050506040513d601f19601f8201168201806040525081019061167e91906125be565b92505f7f000000000000000000000000000000000000000000000000000000000000000073ffffffffffffffffffffffffffffffffffffffff1663c5958af97f0000000000000000000000000000000000000000000000000000000000000000866040518363ffffffff1660e01b81526004016116fc9291906122bc565b5f60405180830381865afa158015611716573d5f5f3e3d5ffd5b505050506040513d5f823e3d601f19601f8201168201806040525081019061173e919061261c565b9050602081511015611785576040517f08c379a000000000000000000000000000000000000000000000000000000000815260040161177c906125a0565b60405180910390fd5b8080602001905181019061179991906125be565b94505050509091565b5f5f8054905082106117e9576040517f08c379a00000000000000000000000000000000000000000000000000000000081526004016117e0906120d7565b60405180910390fd5b5f5f83815481106117fd576117fc611faf565b5b905f5260205f20906005020190508060030160019054906101000a900460ff161561185d576040517f08c379a0000000000000000000000000000000000000000000000000000000008152600401611854906121a7565b60405180910390fd5b8060030160029054906101000a900460ff16156118af576040517f08c379a00000000000000000000000000000000000000000000000000000000081526004016118a6906126ad565b60405180910390fd5b5f5f6118b96114b5565b915091505f81116118ff576040517f08c379a00000000000000000000000000000000000000000000000000000000081526004016118f690612715565b60405180910390fd5b62015180814261190f91906125e9565b1061194f576040517f08c379a00000000000000000000000000000000000000000000000000000000081526004016119469061277d565b60405180910390fd5b5f5f9050836003015f9054906101000a900460ff168015611974575083600201548310155b1561198257600190506119af565b836003015f9054906101000a900460ff161580156119a4575083600201548311155b156119ae57600190505b5b8015611a455760018460030160016101000a81548160ff021916908315150217905550836001015f9054906101000a900473ffffffffffffffffffffffffffffffffffffffff1673ffffffffffffffffffffffffffffffffffffffff16867fc940493818ce80ec530978cb4e1b1d5f9e1f5c19775a2502b579c9686a5091c885604051611a3c9190611e20565b60405180910390a35b80945050505050919050565b6040518060e001604052805f81526020015f73ffffffffffffffffffffffffffffffffffffffff1681526020015f81526020015f151581526020015f151581526020015f151581526020015f81525090565b5f604051905090565b5f5ffd5b5f5ffd5b5f73ffffffffffffffffffffffffffffffffffffffff82169050919050565b5f611add82611ab4565b9050919050565b611aed81611ad3565b8114611af7575f5ffd5b50565b5f81359050611b0881611ae4565b92915050565b5f60208284031215611b2357611b22611aac565b5b5f611b3084828501611afa565b91505092915050565b5f81519050919050565b5f82825260208201905092915050565b5f819050602082019050919050565b5f819050919050565b611b7481611b62565b82525050565b5f611b858383611b6b565b60208301905092915050565b5f602082019050919050565b5f611ba782611b39565b611bb18185611b43565b9350611bbc83611b53565b805f5b83811015611bec578151611bd38882611b7a565b9750611bde83611b91565b925050600181019050611bbf565b5085935050505092915050565b5f6020820190508181035f830152611c118184611b9d565b905092915050565b611c2281611b62565b8114611c2c575f5ffd5b50565b5f81359050611c3d81611c19565b92915050565b5f60208284031215611c5857611c57611aac565b5b5f611c6584828501611c2f565b91505092915050565b611c7781611b62565b82525050565b611c8681611ad3565b82525050565b5f8115159050919050565b611ca081611c8c565b82525050565b5f60e082019050611cb95f83018a611c6e565b611cc66020830189611c7d565b611cd36040830188611c6e565b611ce06060830187611c97565b611ced6080830186611c97565b611cfa60a0830185611c97565b611d0760c0830184611c6e565b98975050505050505050565b5f819050919050565b5f611d36611d31611d2c84611ab4565b611d13565b611ab4565b9050919050565b5f611d4782611d1c565b9050919050565b5f611d5882611d3d565b9050919050565b611d6881611d4e565b82525050565b5f602082019050611d815f830184611d5f565b92915050565b5f819050919050565b611d9981611d87565b82525050565b5f602082019050611db25f830184611d90565b92915050565b611dc181611c8c565b8114611dcb575f5ffd5b50565b5f81359050611ddc81611db8565b92915050565b5f5f60408385031215611df857611df7611aac565b5b5f611e0585828601611c2f565b9250506020611e1685828601611dce565b9150509250929050565b5f602082019050611e335f830184611c6e565b92915050565b5f5f60408385031215611e4f57611e4e611aac565b5b5f611e5c85828601611afa565b9250506020611e6d85828601611c2f565b9150509250929050565b611e8081611ad3565b82525050565b611e8f81611c8c565b82525050565b60e082015f820151611ea95f850182611b6b565b506020820151611ebc6020850182611e77565b506040820151611ecf6040850182611b6b565b506060820151611ee26060850182611e86565b506080820151611ef56080850182611e86565b5060a0820151611f0860a0850182611e86565b5060c0820151611f1b60c0850182611b6b565b50505050565b5f60e082019050611f345f830184611e95565b92915050565b5f604082019050611f4d5f830185611c6e565b611f5a6020830184611c6e565b9392505050565b5f606082019050611f745f830186611c6e565b611f816020830185611c6e565b611f8e6040830184611c6e565b949350505050565b5f602082019050611fa95f830184611c97565b92915050565b7f4e487b71000000000000000000000000000000000000000000000000000000005f52603260045260245ffd5b7f4e487b71000000000000000000000000000000000000000000000000000000005f52601160045260245ffd5b5f61201382611b62565b91507fffffffffffffffffffffffffffffffffffffffffffffffffffffffffffffffff820361204557612044611fdc565b5b600182019050919050565b7f4e487b71000000000000000000000000000000000000000000000000000000005f52604160045260245ffd5b5f82825260208201905092915050565b7f416c65727420646f6573206e6f742065786973740000000000000000000000005f82015250565b5f6120c160148361207d565b91506120cc8261208d565b602082019050919050565b5f6020820190508181035f8301526120ee816120b5565b9050919050565b7f4e6f7420796f757220616c6572740000000000000000000000000000000000005f82015250565b5f612129600e8361207d565b9150612134826120f5565b602082019050919050565b5f6020820190508181035f8301526121568161211d565b9050919050565b7f416c65727420616c7265616479207472696767657265640000000000000000005f82015250565b5f61219160178361207d565b915061219c8261215d565b602082019050919050565b5f6020820190508181035f8301526121be81612185565b9050919050565b7f416c65727420616c72656164792064656c6574656400000000000000000000005f82015250565b5f6121f960158361207d565b9150612204826121c5565b602082019050919050565b5f6020820190508181035f830152612226816121ed565b9050919050565b7f5072696365206d757374206265203e20300000000000000000000000000000005f82015250565b5f61226160118361207d565b915061226c8261222d565b602082019050919050565b5f6020820190508181035f83015261228e81612255565b9050919050565b5f6040820190506122a85f830185611c6e565b6122b56020830184611c97565b9392505050565b5f6040820190506122cf5f830185611d90565b6122dc6020830184611c6e565b9392505050565b5f815190506122f181611db8565b92915050565b5f5ffd5b5f5ffd5b5f601f19601f8301169050919050565b612318826122ff565b810181811067ffffffffffffffff8211171561233757612336612050565b5b80604052505050565b5f612349611aa3565b9050612355828261230f565b919050565b5f67ffffffffffffffff82111561237457612373612050565b5b61237d826122ff565b9050602081019050919050565b8281835e5f83830152505050565b5f6123aa6123a58461235a565b612340565b9050828152602081018484840111156123c6576123c56122fb565b5b6123d184828561238a565b509392505050565b5f82601f8301126123ed576123ec6122f7565b5b81516123fd848260208601612398565b91505092915050565b5f8151905061241481611c19565b92915050565b5f5f5f6060848603121561243157612430611aac565b5b5f61243e868287016122e3565b935050602084015167ffffffffffffffff81111561245f5761245e611ab0565b5b61246b868287016123d9565b925050604061247c86828701612406565b9150509250925092565b7f4e6f2064617461206265666f72652074696d657374616d7000000000000000005f82015250565b5f6124ba60188361207d565b91506124c582612486565b602082019050919050565b5f6020820190508181035f8301526124e7816124ae565b9050919050565b7f4e6f206461746120617661696c61626c650000000000000000000000000000005f82015250565b5f61252260118361207d565b915061252d826124ee565b602082019050919050565b5f6020820190508181035f83015261254f81612516565b9050919050565b7f496e76616c6964206461746100000000000000000000000000000000000000005f82015250565b5f61258a600c8361207d565b915061259582612556565b602082019050919050565b5f6020820190508181035f8301526125b78161257e565b9050919050565b5f602082840312156125d3576125d2611aac565b5b5f6125e084828501612406565b91505092915050565b5f6125f382611b62565b91506125fe83611b62565b925082820390508181111561261657612615611fdc565b5b92915050565b5f6020828403121561263157612630611aac565b5b5f82015167ffffffffffffffff81111561264e5761264d611ab0565b5b61265a848285016123d9565b91505092915050565b7f416c657274207761732064656c657465640000000000000000000000000000005f82015250565b5f61269760118361207d565b91506126a282612663565b602082019050919050565b5f6020820190508181035f8301526126c48161268b565b9050919050565b7f4e6f207072696365206461746120617661696c61626c650000000000000000005f82015250565b5f6126ff60178361207d565b915061270a826126cb565b602082019050919050565b5f6020820190508181035f83015261272c816126f3565b9050919050565b7f5072696365206461746120746f6f206f6c6400000000000000000000000000005f82015250565b5f61276760128361207d565b915061277282612733565b602082019050919050565b5f6020820190508181035f8301526127948161275b565b905091905056fea26469706673582212206da2fa6b9cc0fb13e79c5ead27e58351804afc42b701260f1f34ee0d0cd5e2f464736f6c634300081e0033","linkReferences":{}},"methodIdentifiers":{"alerts(uint256)":"171d073a","checkAlert(uint256)":"f53c3a2b","createAlert(uint256,bool)":"6c399704","deleteAlert(uint256)":"47cc94b5","getActiveAlerts(address)":"09ee17f2","getAlert(uint256)":"85081886","getCurrentPrice()":"eb91d37e","getDataFeedInfo()":"c1db6084","getDeletedAlerts(address)":"46db8965","getPriceAt(uint256)":"ac37bf10","getTotalAlerts()":"c1be76d7","getTriggeredAlerts(address)":"8c4562cd","getUserAlerts(address)":"cb9ba736","queryId()":"3f1be4d4","tellor()":"1959ad5b","userAlerts(address,uint256)":"6db5e0c6"},"id":20}